:0200000031C00D
:10000200FECFFDCFFCCFFBCFFACFF9CFF8CFF7CFA2
:10001200F6CFF5CFF4CFF3CFF2CFF1CFF0CFEFCFD2
:10002200EECFEDCFECCFEBCF1027E80364000A0050
:1000320001000010000110000100370038003900F3
:100042002F003400350036005800310032003300F2
:100052002D0030003D002B0080C00200E0005A005D
:100062000000F894EE27ECBBF1E0FBBFEBBFE5BF6D
:100072008DE0A2E0BB27ED938A95E9F780E092E05C
:10008200A0E6ED930197E9F7ECE5F0E08591959113
:10009200009761F0A591B59105901590BF01F0010F
:1000A20005900D920197E1F7FB01F0CFEFE5EDBF6F
:1000B200E2E0EEBFC0EED0E000C0EFEFE4BBE0E074
:1000C200E5BBEFE0E7BBA0E1C6D0EEEFE8BBB49939
:1000D20004C0ECD0ACE3B0E0AFD0B59904C0E6D038
:1000E200AEE3B0E0A9D0B69904C0E0D0A0E4B0E09D
:1000F200A3D0B79904C0DAD0A2E4B0E09DD0DAD0A0
:10010200EDEFE8BBB49904C0D1D0A4E4B0E094D040
:10011200B59904C0CBD0A6E4B0E08ED0B69904C0A5
:10012200C5D0A8E4B0E088D0B79904C0BFD0AAE493
:10013200B0E082D0BFD0EBEFE8BBB49904C0B6D038
:10014200ACE4B0E079D0B59904C0B0D0AEE4B0E090
:1001520073D0B69904C0AAD0A0E5B0E06DD0B7992B
:1001620004C0A4D0A2E5B0E067D0A4D0E7EFE8BB1A
:10017200B49904C09BD0ADE3B0E05ED0B59904C0A1
:1001820095D0A4E5B0E058D0B69904C08FD0A6E5CA
:10019200B0E052D0B79904C089D0A8E5B0E04CD005
:1001A20089D093CFFFCF1A931A2FE5B3EF70AE2FFA
:1001B200E12FE07FEA2BE5BB80D0AA9A7ED0AA98F5
:1001C2007CD072C0AA93A881EEDFE881E295E88331
:1001D200A881E9DF85E88A95F1F7219608957ED016
:1001E2001A2F0A81E12FF0E0E052FF4FE081E00F89
:1001F200AE2FE8DF502E412E76D023960895A2E04E
:1002020060D0ACE0DFDFA1E05CD0E0E04E2E5E2EFD
:1002120008951A931A2F1A3011F0571438F0E0E0AB
:10022200EA934394A42DDBDF1A30F1F15394A89A98
:10023200A12FC8DFA89838C04FD09D01F9012F5FC8
:100242003F4FE4911E2FE03019F0A12FE2DFF6CFED
:1002520048D0249608951A931A2FE4B3E06FE4BBB2
:10026200A29AA09AA19AAA98A898A998712EE12F69
:10027200E058E093E200E12FE054E093E300A4E1D0
:10028200B0E034D022D021D020D0A0E28CDF88ECA4
:1002920090E00197F1F7A8E295DFA4E093DFA5E8EB
:1002A20091DFA6E08FDFABDF19910895EFE0EA93CB
:1002B200A1E095CFAEE1B0E019C08DE08A95F1F7EB
:1002C200089580DFA3E0B0E011C0A0E36CDF88EC0A
:1002D20090E00197F1F708953A932A931A930A93BB
:1002E20008953B812A81198108810895109639F079
:1002F200A89580ED97E00197F1F71197C9F7089556
:00000001FF
