:0E0000000C9433000C9400000C9400000C943F
:10000E0000000C9400000C9400000C9400000C9462
:10001E0000000C9400000C9400000C9400000C9452
:10002E0000000C9400000C9400000C9400000C9442
:10003E0000000C9400000C9400000C9400000C9432
:10004E0000000C9400003F065B4F666D7D077F6FCE
:10005E000A00600154000000F894EE27ECBBF1E0BA
:10006E00FBBFEBBFE5BF8DE0A2E0BB27ED938A950A
:10007E00E9F780E094E0A0E6ED930197E9F7EEE56D
:10008E00F0E085919591009761F0A591B59105905D
:10009E001590BF01F00105900D920197E1F7FB015C
:1000AE00F0CFEFE5EDBFE4E0EEBFC0E6D1E00C949B
:1000BE009200C0926A01D0926B0171D0B3D02F0121
:1000CE006ED074D03F0178D0E4E6F0E06FD04F01EF
:1000DE0073D0E8EEF3E06AD05F010895C09AC19A3A
:1000EE00C29AC398A0E6B1E0A40DB51D6AD0C19A1C
:1000FE00C298C39AA0E6B1E0A60DB71D62D0C19812
:10010E0067D0A80DB91D69D0C098C19A61D0AA0D4B
:10011E00BB1D63D00895E0E0EABBEFEFE7BBE4BBA5
:10012E00E1BBEBBBE0E0E8BBE5BBE2BBE0E0E093AC
:10013E006C01E0936D01A0916C01B0916D01D297AD
:10014E0054F4B7DFCBDFACE6B1E0ED91FD91319623
:10015E00FE93EE93F0CFC8990AC0F60131966F0167
:10016E00EFE0F7E2EC15FD0514F4CC24DD24C99B79
:10017E000AC0F60131976F01319600240C140D045C
:10018E0014F0CC24DD24CA9B08C0EFE02BD0E0E0B5
:10019E0029D0E3E027D0ECE025D0C8CFFFCFA09147
:1001AE006A01B0916B01EAE0F0E0089536D0DF010C
:1001BE00EAE0F0E037D00895A0916A01B0916B01AA
:1001CE000895EC91E5BBA1E0B0E048D0C09A089547
:1001DE00C29AC39AA0E6B1E00895EC91E5BBA1E006
:1001EE00B0E03CC0E2BBA4E6B0E038C0F195E195CA
:1001FE00F04008950024112490E1AA0FBB1F001CAB
:10020E00111C0E1A1F0A18F40E0E1F1E01C0A1603B
:10021E009A9599F7FD01D001089512D0EBDF0EF4F7
:10022E00E5DF0895E894B7FF04C0B195A195B040FD
:10023E006894F7FDDBDFDEDFFD010EF4D7DF0895F6
:10024E00E894F7FF02C0D2DF6894B7FF06C0B195FD
:10025E00A195B04000F8039400FA0895109639F075
:10026E00A89580ED97E00197F1F71197C9F70895DA
:00000001FF
