:020000000C945E
:100002002A000C9400000C9400000C9400000C9444
:1000120000000C9400000C9400000C9400000C945E
:1000220000000C9400000C9400000C9400000C944E
:1000320000000C9400000C9400000C9400000C943E
:1000420000000C9400000C9400000C9400000C942E
:100052000000F894EE27ECBBF1E0FBBFEBBFE5BF7D
:100062008DE0A2E0BB27ED938A95E9F780E094E06A
:10007200A0E6ED930197E9F7EFE5EDBFE4E0EEBF0F
:10008200C0E6D1E00C944500E0E0E7BBEFEFE1BB56
:10009200E0E0E2BBEFEFE8BBB19908C017D01BD09C
:1000A2001FD023D027D02BD02FD033D0B09908C067
:1000B20030D02AD024D01ED018D012D00CD006D0E6
:1000C200B29902C0E0E0E2BBE7CFFFCFE0E8E2BBDB
:1000D200A2E3B0E023C0E0E4E2BBA2E3B0E01EC0D2
:1000E200E0E2E2BBA2E3B0E019C0E0E1E2BBA2E3DE
:1000F200B0E014C0E8E0E2BBA2E3B0E00FC0E4E08D
:10010200E2BBA2E3B0E00AC0E2E0E2BBA2E3B0E0FD
:1001120005C0E1E0E2BBA2E3B0E000C0109639F016
:10012200A89580ED97E00197F1F71197C9F7089527
:00000001FF
