:0A0000000C942A000C9400000C94EC
:10000A0000000C9400000C9400000C9400000C9466
:10001A0000000C9400000C9400000C9400000C9456
:10002A0000000C9400000C9400000C9400000C9446
:10003A0000000C9400000C9400000C9400000C9436
:10004A0000000C9400000C940000F894EE27ECBB1E
:10005A00F1E0FBBFEBBFE5BF8DE0A2E0BB27ED936C
:10006A008A95E9F780E094E0A0E6ED930197E9F735
:10007A00EFE5EDBFE4E0EEBFC0E6D1E00C947E0010
:10008A00ECE046D0EAE044D0E1E242D0E1E140D0FF
:10009A00E9E044D0E9E048D0E9E04CD0E9E0E5BB4A
:1000AA00E1E10AC0ECE03AD0EAE03ED049D0E1E230
:1000BA0041D046D0EAE0E5BBE2BBA4E6B0E046D0D8
:1000CA000895B09903C0E1E0F0E02F01B19903C0AF
:1000DA00E2E0F0E02F010895E1E0F0E0E415F50533
:1000EA0009F4CEDFE2E0F0E0E415F50509F4DADF21
:1000FA000895EFEFE8BBE0E0E7BBE5BBEFEFE4BB59
:10010A00E0E0E2BBEFEFE1BBDCDFE6DFFDCFFFCFF4
:10011A00E5BBE9E0E2BBA4E6B0E018C0E5BBECE071
:10012A00E2BBA4E6B0E012C0E5BBEAE0E2BBA4E6AB
:10013A00B0E00CC0E5BBE1E2E2BBA4E6B0E006C079
:10014A00E1E1E5BBE2BBA4E6B0E000C0109639F0FD
:10015A00A89580ED97E00197F1F71197C9F70895EF
:00000001FF
