:060000000C942A000C9490
:1000060000000C9400000C9400000C9400000C946A
:1000160000000C9400000C9400000C9400000C945A
:1000260000000C9400000C9400000C9400000C944A
:1000360000000C9400000C9400000C9400000C943A
:1000460000000C9400000C9400000C940000F8943E
:10005600EE27ECBBF1E0FBBFEBBFE5BF8DE0A2E016
:10006600BB27ED938A95E9F780E094E0A0E6ED934F
:100076000197E9F7EFE5EDBFE4E0EEBFC0E6D1E0BA
:100086000C944500EFEFE7BBE0E0E4BBEFEFE5BB28
:10009600E0E0E8BB989902C0E9E0E8BB999902C0A4
:1000A600E6E0E8BB9A9902C0E0E0E8BBF3CFFFCFF9
:00000001FF
