:080000000C942A000C9400008E
:100008000C9400000C9400000C9400000C94000068
:100018000C9400000C9400000C9400000C94000058
:100028000C9400000C9400000C9400000C94000048
:100038000C9400000C9400000C9400000C94000038
:100048000C9400000C9400000C940000F894EE2727
:10005800ECBBF1E0FBBFEBBFE5BF8DE0A2E0BB2747
:10006800ED938A95E9F780E094E0A0E6ED93019797
:10007800E9F7EFE5EDBFE4E0EEBFC0E6D1E00C94B0
:100088004500E0E0E5BBEFEFE4BBE0E0E2BBEFEF0B
:10009800E1BBE9EF06D0E8E804D0E8EC02D0F9CFFC
:1000A800FFCFE5BB909AA4E6B0E000C0109639F007
:1000B800A89580ED97E00197F1F71197C9F7089592
:00000001FF
