:100000000C942A000C9400000C9400000C94000046
:100010000C9400000C9400000C9400000C94000060
:100020000C9400000C9400000C9400000C94000050
:100030000C9400000C9400000C9400000C94000040
:100040000C9400000C9400000C9400000C94000030
:100050000C940000F894EE27ECBBF1E0FBBFEBBF83
:10006000E5BF8DE0A2E0BB27ED938A95E9F780E03C
:1000700094E0A0E6ED930197E9F7EFE5EDBFE4E04A
:10008000EEBFC0E6D1E00C945F00ECE0E5BB26D00B
:10009000EAE0E5BB27D0E1E2E5BB20D0E1E1E5BB4A
:1000A00021D00895B09903C0E1E0F0E02F01089558
:1000B000E1E0F0E0E415F50509F4E7DF0895EFEF7E
:1000C000E8BBE0E0E7BBE5BBEFEFE4BBE0E0E2BBB1
:1000D000EFEFE1BBE7DFECDFFDCFFFCFE2BBA8EC4A
:1000E000B0E004C0E2BBA4E6B0E000C0109639F076
:1000F000A89580ED97E00197F1F71197C9F708955A
:00000001FF
