:0A0000000C942A000C9400000C94EC
:10000A0000000C9400000C9400000C9400000C9466
:10001A0000000C9400000C9400000C9400000C9456
:10002A0000000C9400000C9400000C9400000C9446
:10003A0000000C9400000C9400000C9400000C9436
:10004A0000000C9400000C940000F894EE27ECBB1E
:10005A00F1E0FBBFEBBFE5BF8DE0A2E0BB27ED936C
:10006A008A95E9F780E094E0A0E6ED930197E9F735
:10007A00EFE5EDBFE4E0EEBFC0E6D1E00C9474001A
:10008A00ECE0E5BB0895ECE035D0E2E133D0E1E203
:10009A00E5BBA0E2B3E032D0E2E1E5BBA8ECB0E018
:1000AA002DD0ECE0E5BBAAE0B0E028D00895B09BE3
:1000BA0003C0E1E0F0E02F01B19903C0E2E0F0E013
:1000CA002F010895E1E0F0E0E415F50509F4D8DF21
:1000DA00E2E0F0E0E415F50509F4D5DF0895EFEF65
:1000EA00E8BBE0E0E7BBE5BBEFEFE4BBE0DFEADF5C
:1000FA00FDCFFFCFE5BBA4E6B0E000C0109639F013
:10010A00A89580ED97E00197F1F71197C9F708953F
:00000001FF
