:080000000C942A000C9400008E
:100008000C9400000C9400000C9400000C94000068
:100018000C9400000C9400000C9400000C94000058
:100028000C9400000C9400000C9400000C94000048
:100038000C9400000C9400000C9400000C94000038
:100048000C9400000C9400000C940000F894EE2727
:10005800ECBBF1E0FBBFEBBFE5BF8DE0A2E0BB2747
:10006800ED938A95E9F780E094E0A0E6ED93019797
:10007800E9F7EFE5EDBFE4E0EEBFC0E6D1E00C94B0
:100088004500E0E0EABBEFEFE4BBE1BBEBBB15D01A
:10009800CF9B11C016D0E2E01BD0E4E019D0E1E01C
:1000A800E5BBE2E0E2BBACE2B1E018D00AD005D093
:1000B800ACE2B1E013D0ECCFFFCFE0E0E5BBE2BBB0
:1000C8000895E1E0E5BBE4E0E2BBACE2B1E006C0E4
:1000D800E5BBE1E0E2BBACE2B1E000C0109639F06C
:1000E800A89580ED97E00197F1F71197C9F7089562
:00000001FF
